:020000020000FC
:100000000C9463003138340032363300333231001F
:100010003433380035303200363939003731340066
:08002000383533003936320097
:10005C000C94FD000C943200189521BB1FD0169AFD
:10006C001DD016981BD0089521BB179A17D0169A3D
:10007C0015D0169813D0179808952F93222720BBCC
:10008C0021BB159A0BD0169A09D02FB1169827FDC3
:10009C00F9CF15982FEF20BB2F9108958F939F9335
:1000AC009FE08CE90197F1F79F918F910895F6DF0E
:1000BC00F5DFF4DFF3DFF2DF0895CFEFD1E2DEBF3F
:1000CC00CDBFF0E0E8E2349704910FEF07B90027B9
:1000DC0008B9C2E0D2E0002709930883C0E0D2E05F
:1000EC00002709930883C4E0D2E000270993088312
:1000FC000FEF00BB01B9002701BB02B970EF709381
:10010C000A0128E3AADFB9DFD2DF28E3A6DFB5DFD7
:10011C00C5DF28E3A2DFB1DF28E39FDFAEDF28E0F5
:10012C009CDFABDF21E099DFA8DF26E096DFA5DFBF
:10013C002CE093DFA2DF22E397DF9FDF21E394DF44
:10014C009CDF22E391DF99DF21E38EDF96DF20E253
:10015C008BDF93DF21E388DF90DF27E385DF8DDF03
:10016C0023E782DF8ADF21E37FDF87DF20E27CDF8A
:10017C0084DF20E279DF81DF20E276DF7EDF23E49B
:10018C0073DF7BDF28E370DF78DF20EC66DF75DF61
:10019C0026E56ADF72DF25E667DF6FDF2EE664DFB8
:1001AC006CDF24E661DF69DF29E65EDF66DF2EE6C1
:1001BC005BDF63DF27E658DF60DF20E255DF5DDFC2
:1001CC002DE452DF5ADF21E64FDF57DF23E64CDF09
:1001DC0054DF28E649DF51DF29E646DF4EDF2EE605
:1001EC0043DF4BDF25E640DF48DF9CC0FFCF0FB776
:1001FC000F93DF93CF939F938F93113031F0123085
:10020C00B9F01330C1F04130C1F1413029F1809186
:10021C00020290910302019684380EE1900741F599
:10022C00C2E0D2E00027099308831130B1F148C035
:10023C000FEF08B913E0809104029091050201962A
:10024C0082340FE09007B9F5C4E0D2E0002709939F
:10025C000883133019F034C00C946D01353011F152
:10026C003395032F0170003019F3002708B928C00B
:10027C00809302029093030223C08091000290911C
:10028C0001020196883E03E0090781F4C0E0D2E048
:10029C00002709930883442713C0333019F0339592
:1002AC0038B90EC01127332738B9D6CF8093000246
:1002BC009093010205C0809304029093050200C044
:1002CC008F919F91CF91DF910F910FBF189521E0E6
:1002DC00C4DED3DE23E5C8DED0DE25E6C5DECDDE0A
:1002EC002CE6C2DECADE25E6BFDEC7DE23E6BCDEB8
:1002FC00C4DE24E7B9DEC1DE20E2B6DEBEDE29E6CE
:10030C00B3DEBBDE24E7B0DEB8DE25E6ADDEB5DE5F
:10031C002DE6AADEB2DE20ECA0DEAFDE44271127EC
:10032C00C6DECECF3327442711E0002704BD02E000
:10033C0005BD01E000936E0078949FEE55270027D1
:10034C00772788271230C9F31330B9F34130A9F35A
:10035C00543099F390930B017FEF7A95F1F77091EC
:10036C0009017F707F3059F0A1E06627643039F0C5
:10037C00872F8A2341F06395AA0F0C94BC01990F27
:10038C0053950C94AE01533049F0633049F0762FFD
:10039C00770F760F750F7F5F0C94E3010C94A3011C
:1003AC00503021F0513021F00C94A3010C94A30196
:1003BC0070E00C94E3010C94A301272F205D54DE14
:1003CC005CDE41E01130B9F321E047DE56DE2FE46C
:1003DC004BDE53DE25E748DE50DE24E745DE4DDEFE
:1003EC0020E242DE4ADE2FE63FDE47DE26E63CDE3A
:1003FC0044DE20E239DE41DE23E736DE3EDE24E752
:10040C0033DE3BDE2FE630DE38DE23E62DDE35DE56
:10041C002BE62ADE32DE20EC20DE2FDE272F205DBD
:0A042C0023DE2BDE44DE12E088CF51
:00000001FF
