:020000020000FC
:100000000C9460000C9467010C94760138343633FC
:0E00100032313338303239393134353336320B
:10005C000C94F90021BB1FD0169A1DD016981BD0FA
:10006C00089521BB179A17D0169A15D0169813D04D
:10007C00179808952F93222720BB21BB159A0BD0DC
:10008C00169A09D02FB1169827FDF9CF15982FEF96
:10009C0020BB2F9108958F939F939FE08CE901973C
:1000AC00F1F79F918F910895F6DFF5DFF4DFF3DF21
:1000BC00F2DF0895CFEFD1E2DEBFCDBF0FEF07B96E
:1000CC00002708B9C2E0D2E0002709930883C0E0FA
:1000DC00D2E0002709930883C4E0D2E000270993FB
:1000EC000883002704B905B90FEF00BB01B900273D
:1000FC0001BB02B970EF70930A0128E3ABDFBADFE2
:10010C00D3DF28E3A7DFB6DFC6DF28E3A3DFB2DF48
:10011C0028E3A0DFAFDF28E09DDFACDF21E09ADF32
:10012C00A9DF26E097DFA6DF2CE094DFA3DF22E334
:10013C0098DFA0DF21E395DF9DDF22E392DF9ADFDA
:10014C0021E38FDF97DF20E28CDF94DF21E389DF6F
:10015C0091DF27E386DF8EDF23E783DF8BDF21E36D
:10016C0080DF88DF20E27DDF85DF20E27ADF82DF3F
:10017C0020E277DF7FDF23E474DF7CDF28E371DFAD
:10018C0079DF20EC67DF76DF26E56BDF73DF25E6B2
:10019C0068DF70DF2EE665DF6DDF24E662DF6ADF85
:1001AC0029E65FDF67DF2EE65CDF64DF27E659DFD9
:1001BC0061DF20E256DF5EDF2DE453DF5BDF21E6FB
:1001CC0050DF58DF23E64DDF55DF28E64ADF52DFEC
:1001DC0029E647DF4FDF2EE644DF4CDF25E641DF23
:1001EC0049DFE0C0FFCF0FB70F93DF93CF939F93FF
:1001FC008F931130E1F01230D1F11330E1F1413035
:10020C0009F058C080910002909101020196803D46
:10021C0007E0090739F4C0E0D2E00027099308830E
:10022C00442748C0809300029093010243C04130A0
:10023C0089F18091020290910302019684380EE1BB
:10024C00900741F4C2E0D2E00027099308831130F3
:10025C0031F030C080930202909303022BC033958F
:10026C00333009F027C011274427332713C00FEF71
:10027C0008B913E042E080910402909105020196C6
:10028C0082340FE0900791F4C4E0D2E00027099388
:10029C00088302C00C948601353029F33395032F63
:1002AC000170003021F3002708B904C080930402C8
:1002BC00909305028F919F91CF91DF910F910FBF7A
:1002CC0018954230E1F40F930FB70F93C4E0D2E0CE
:1002DC000027099308830F910FBF0F91E8B910C045
:1002EC00423069F40F930FB70F93C4E0D2E00027AC
:1002FC00099308830F910FBF0F91E8B901C01895AE
:10030C0021E0A8DEB7DE23E5ACDEB4DE25E6A9DE0F
:10031C00B1DE2CE6A6DEAEDE25E6A3DEABDE23E602
:10032C00A0DEA8DE24E79DDEA5DE20E29ADEA2DEBA
:10033C0029E697DE9FDE24E794DE9CDE25E691DE3F
:10034C0099DE2DE68EDE96DE20EC84DE93DEACDECE
:10035C004130B1F0423009F0ADCFC4E0D2E000271B
:10036C0009930883C0E0D2E0002709930883C2E018
:10037C00D2E00027099308833327442711271895C7
:10038C00C4E0D2E0002709930883C2E0D2E0002742
:10039C0009930883C0E0D2E0002709930883332730
:1003AC00112730CF0AE0009369000DB303600DBB39
:1003BC000DEC00937A0008E000937B00006C009336
:1003CC007C000DB304600DBB3327442711E00027DC
:1003DC0004BD02E005BD01E000936E007894F0E0EE
:1003EC00EEE13197D2E0C6E03F93332704910053FE
:1003FC003197339509933231C9F7EE27FF273F9197
:10040C009FEE55270027772788274030C9F71230F1
:10041C00B9F31330A9F3543099F390930B017FEF98
:10042C007A95F1F7709109017F707F3059F0A1E056
:10043C006627643039F0872F8A2341F06395AA0F21
:10044C000C941F02990F53950C941102533049F0E0
:10045C00633051F0762F770F760F750F7F5F0C940A
:10046C00490241E00C940602503029F0513031F031
:10047C0041E00C94060241E00C94060241E00C941D
:10048C0006020C94060241E01130D9F37F93D2E0BE
:10049C00C6E07A95703061F02296FBCF43E07F93F3
:1004AC004430F1F7339538B98150803041F46EC047
:1004BC000991B02F88810030B9F101500A937F91D6
:1004CC0021E0C8DDD7DD29E4CCDDD4DD2EE6C9DDA5
:1004DC00D1DD23E7C6DDCEDD25E6C3DDCBDD22E7AE
:1004EC00C0DDC8DD24E7BDDDC5DD20E2BADDC2DD3F
:1004FC0023E6B7DDBFDD2FE6B4DDBCDD29E6B1DDDB
:10050C00B9DD2EE6AEDDB6DD23E7ABDDB3DD2B2F9B
:10051C00205DA7DDAFDD20EC9DDDACDD282F205D5F
:10052C00A0DDA8DD0C9454027F9121E093DDA2DDC7
:10053C002FE497DD9FDD25E794DD9CDD24E791DD3D
:10054C0099DD20E28EDD96DD2FE68BDD93DD26E650
:10055C0088DD90DD20E285DD8DDD23E782DD8ADD1F
:10056C0024E77FDD87DD2FE67CDD84DD23E679DD86
:10057C0081DD2BE676DD7EDD20EC6CDD7BDD272F4F
:0C058C00205D6FDD77DD90DD12E03ACFDE
:00000001FF
